{
  "contractName": "SyMantra",
  "abi": [
    {
      "inputs": [],
      "stateMutability": "nonpayable",
      "type": "constructor"
    },
    {
      "inputs": [
        {
          "internalType": "address",
          "name": "spender",
          "type": "address"
        },
        {
          "internalType": "uint256",
          "name": "allowance",
          "type": "uint256"
        },
        {
          "internalType": "uint256",
          "name": "needed",
          "type": "uint256"
        }
      ],
      "name": "ERC20InsufficientAllowance",
      "type": "error"
    },
    {
      "inputs": [
        {
          "internalType": "address",
          "name": "sender",
          "type": "address"
        },
        {
          "internalType": "uint256",
          "name": "balance",
          "type": "uint256"
        },
        {
          "internalType": "uint256",
          "name": "needed",
          "type": "uint256"
        }
      ],
      "name": "ERC20InsufficientBalance",
      "type": "error"
    },
    {
      "inputs": [
        {
          "internalType": "address",
          "name": "approver",
          "type": "address"
        }
      ],
      "name": "ERC20InvalidApprover",
      "type": "error"
    },
    {
      "inputs": [
        {
          "internalType": "address",
          "name": "receiver",
          "type": "address"
        }
      ],
      "name": "ERC20InvalidReceiver",
      "type": "error"
    },
    {
      "inputs": [
        {
          "internalType": "address",
          "name": "sender",
          "type": "address"
        }
      ],
      "name": "ERC20InvalidSender",
      "type": "error"
    },
    {
      "inputs": [
        {
          "internalType": "address",
          "name": "spender",
          "type": "address"
        }
      ],
      "name": "ERC20InvalidSpender",
      "type": "error"
    },
    {
      "anonymous": false,
      "inputs": [
        {
          "indexed": true,
          "internalType": "address",
          "name": "owner",
          "type": "address"
        },
        {
          "indexed": true,
          "internalType": "address",
          "name": "spender",
          "type": "address"
        },
        {
          "indexed": false,
          "internalType": "uint256",
          "name": "value",
          "type": "uint256"
        }
      ],
      "name": "Approval",
      "type": "event"
    },
    {
      "anonymous": false,
      "inputs": [
        {
          "indexed": true,
          "internalType": "address",
          "name": "from",
          "type": "address"
        },
        {
          "indexed": true,
          "internalType": "uint256",
          "name": "tokenId",
          "type": "uint256"
        },
        {
          "indexed": false,
          "internalType": "uint256",
          "name": "amount",
          "type": "uint256"
        }
      ],
      "name": "TokenBurned",
      "type": "event"
    },
    {
      "anonymous": false,
      "inputs": [
        {
          "indexed": true,
          "internalType": "address",
          "name": "to",
          "type": "address"
        },
        {
          "indexed": true,
          "internalType": "uint256",
          "name": "tokenId",
          "type": "uint256"
        },
        {
          "indexed": false,
          "internalType": "string",
          "name": "mantra",
          "type": "string"
        },
        {
          "indexed": false,
          "internalType": "uint256",
          "name": "quantity",
          "type": "uint256"
        }
      ],
      "name": "TokenMinted",
      "type": "event"
    },
    {
      "anonymous": false,
      "inputs": [
        {
          "indexed": true,
          "internalType": "address",
          "name": "from",
          "type": "address"
        },
        {
          "indexed": true,
          "internalType": "address",
          "name": "to",
          "type": "address"
        },
        {
          "indexed": true,
          "internalType": "uint256",
          "name": "tokenId",
          "type": "uint256"
        },
        {
          "indexed": false,
          "internalType": "uint256",
          "name": "amount",
          "type": "uint256"
        }
      ],
      "name": "TokenTransferred",
      "type": "event"
    },
    {
      "anonymous": false,
      "inputs": [
        {
          "indexed": true,
          "internalType": "address",
          "name": "from",
          "type": "address"
        },
        {
          "indexed": true,
          "internalType": "address",
          "name": "to",
          "type": "address"
        },
        {
          "indexed": false,
          "internalType": "uint256",
          "name": "value",
          "type": "uint256"
        }
      ],
      "name": "Transfer",
      "type": "event"
    },
    {
      "inputs": [
        {
          "internalType": "address",
          "name": "owner",
          "type": "address"
        },
        {
          "internalType": "address",
          "name": "spender",
          "type": "address"
        }
      ],
      "name": "allowance",
      "outputs": [
        {
          "internalType": "uint256",
          "name": "",
          "type": "uint256"
        }
      ],
      "stateMutability": "view",
      "type": "function",
      "constant": true
    },
    {
      "inputs": [
        {
          "internalType": "address",
          "name": "spender",
          "type": "address"
        },
        {
          "internalType": "uint256",
          "name": "value",
          "type": "uint256"
        }
      ],
      "name": "approve",
      "outputs": [
        {
          "internalType": "bool",
          "name": "",
          "type": "bool"
        }
      ],
      "stateMutability": "nonpayable",
      "type": "function"
    },
    {
      "inputs": [
        {
          "internalType": "address",
          "name": "account",
          "type": "address"
        }
      ],
      "name": "balanceOf",
      "outputs": [
        {
          "internalType": "uint256",
          "name": "",
          "type": "uint256"
        }
      ],
      "stateMutability": "view",
      "type": "function",
      "constant": true
    },
    {
      "inputs": [],
      "name": "decimals",
      "outputs": [
        {
          "internalType": "uint8",
          "name": "",
          "type": "uint8"
        }
      ],
      "stateMutability": "view",
      "type": "function",
      "constant": true
    },
    {
      "inputs": [],
      "name": "name",
      "outputs": [
        {
          "internalType": "string",
          "name": "",
          "type": "string"
        }
      ],
      "stateMutability": "view",
      "type": "function",
      "constant": true
    },
    {
      "inputs": [],
      "name": "owner",
      "outputs": [
        {
          "internalType": "address",
          "name": "",
          "type": "address"
        }
      ],
      "stateMutability": "view",
      "type": "function",
      "constant": true
    },
    {
      "inputs": [],
      "name": "symbol",
      "outputs": [
        {
          "internalType": "string",
          "name": "",
          "type": "string"
        }
      ],
      "stateMutability": "view",
      "type": "function",
      "constant": true
    },
    {
      "inputs": [
        {
          "internalType": "uint256",
          "name": "",
          "type": "uint256"
        }
      ],
      "name": "tokenMantras",
      "outputs": [
        {
          "internalType": "string",
          "name": "",
          "type": "string"
        }
      ],
      "stateMutability": "view",
      "type": "function",
      "constant": true
    },
    {
      "inputs": [
        {
          "internalType": "address",
          "name": "from",
          "type": "address"
        },
        {
          "internalType": "address",
          "name": "to",
          "type": "address"
        },
        {
          "internalType": "uint256",
          "name": "value",
          "type": "uint256"
        }
      ],
      "name": "transferFrom",
      "outputs": [
        {
          "internalType": "bool",
          "name": "",
          "type": "bool"
        }
      ],
      "stateMutability": "nonpayable",
      "type": "function"
    },
    {
      "inputs": [],
      "name": "totalSupply",
      "outputs": [
        {
          "internalType": "uint256",
          "name": "",
          "type": "uint256"
        }
      ],
      "stateMutability": "view",
      "type": "function",
      "constant": true
    },
    {
      "inputs": [],
      "name": "getTokenId",
      "outputs": [
        {
          "internalType": "uint256",
          "name": "",
          "type": "uint256"
        }
      ],
      "stateMutability": "view",
      "type": "function",
      "constant": true
    },
    {
      "inputs": [
        {
          "internalType": "address",
          "name": "to",
          "type": "address"
        },
        {
          "internalType": "string",
          "name": "mantra",
          "type": "string"
        },
        {
          "internalType": "uint256",
          "name": "quantity",
          "type": "uint256"
        }
      ],
      "name": "mintTokens",
      "outputs": [],
      "stateMutability": "nonpayable",
      "type": "function"
    },
    {
      "inputs": [
        {
          "internalType": "address",
          "name": "to",
          "type": "address"
        },
        {
          "internalType": "uint256",
          "name": "amount",
          "type": "uint256"
        }
      ],
      "name": "transfer",
      "outputs": [
        {
          "internalType": "bool",
          "name": "",
          "type": "bool"
        }
      ],
      "stateMutability": "nonpayable",
      "type": "function"
    },
    {
      "inputs": [
        {
          "internalType": "uint256",
          "name": "amount",
          "type": "uint256"
        }
      ],
      "name": "burn",
      "outputs": [],
      "stateMutability": "nonpayable",
      "type": "function"
    },
    {
      "inputs": [
        {
          "internalType": "uint256",
          "name": "tokenId",
          "type": "uint256"
        }
      ],
      "name": "getTokenMantra",
      "outputs": [
        {
          "internalType": "string",
          "name": "",
          "type": "string"
        }
      ],
      "stateMutability": "view",
      "type": "function",
      "constant": true
    }
  ],
  "bytecode": "0x60806040523480156200001157600080fd5b506040518060400160405280601281526020017f53796d626f6c696356616c7565546f6b656e00000000000000000000000000008152506040518060400160405280600381526020017f535654000000000000000000000000000000000000000000000000000000000081525081600390816200008f919062000195565b5060046200009e828262000195565b505060058054600160a060020a0319163317905550600160075562000268565b7f4e487b7100000000000000000000000000000000000000000000000000000000600052604160045260246000fd5b6002810460018216806200010257607f821691505b6020821081036200013c577f4e487b7100000000000000000000000000000000000000000000000000000000600052602260045260246000fd5b50919050565b601f82111562000190576000818152602081206020601f860104810160208610156200016b5750805b6020601f860104820191505b818110156200018c5782815560010162000177565b5050505b505050565b815167ffffffffffffffff811115620001b257620001b2620000be565b620001ca81620001c38454620000ed565b8462000142565b602080601f831160018114620002065760008415620001e95750858301515b60028086026008870290910a60001904198216178655506200018c565b600085815260208120601f198616915b82811015620002375788860151825594840194600190910190840162000216565b50858210156200025857878501516008601f88160260020a60001904191681555b5050505050600202600101905550565b6111ef80620002786000396000f3fe608060405234801561001057600080fd5b5060043610610112576000357c01000000000000000000000000000000000000000000000000000000009004806342966c68116100b457806395d89b411161008357806395d89b411461021f578063a9059cbb14610227578063bdadad521461023a578063dd62ed3e1461024d57600080fd5b806342966c68146101a35780635796b7b2146101b857806370a08231146101cb5780638da5cb5b146101f457600080fd5b806318160ddd116100f057806318160ddd1461016657806323b872dd1461016e578063313ce5671461018157806341ce52661461019057600080fd5b8063010a38f51461011757806306fdde031461012e578063095ea7b314610143575b600080fd5b6007545b6040519081526020015b60405180910390f35b610136610286565b6040516101259190610dd8565b610156610151366004610e0e565b610318565b6040519015158152602001610125565b61011b610332565b61015661017c366004610e38565b610342565b60405160128152602001610125565b61013661019e366004610e74565b610366565b6101b66101b1366004610e74565b610400565b005b6101366101c6366004610e74565b610525565b61011b6101d9366004610e8d565b600160a060020a031660009081526020819052604090205490565b60055461020790600160a060020a031681565b604051600160a060020a039091168152602001610125565b6101366105c7565b610156610235366004610e0e565b6105d6565b6101b6610248366004610ed7565b61076f565b61011b61025b366004610fa2565b600160a060020a03918216600090815260016020908152604080832093909416825291909152205490565b60606003805461029590610fd5565b80601f01602080910402602001604051908101604052809291908181526020018280546102c190610fd5565b801561030e5780601f106102e35761010080835404028352916020019161030e565b820191906000526020600020905b8154815290600101906020018083116102f157829003601f168201915b5050505050905090565b600033610326818585610972565b60019150505b92915050565b600061033d60025490565b905090565b600033610350858285610984565b61035b858585610a15565b506001949350505050565b6006602052600090815260409020805461037f90610fd5565b80601f01602080910402602001604051908101604052809291908181526020018280546103ab90610fd5565b80156103f85780601f106103cd576101008083540402835291602001916103f8565b820191906000526020600020905b8154815290600101906020018083116103db57829003601f168201915b505050505081565b6000811161047e5760405160e560020a62461bcd02815260206004820152602260248201527f4275726e20616d6f756e74206d7573742062652067726561746572207468616e60448201527f203000000000000000000000000000000000000000000000000000000000000060648201526084015b60405180910390fd5b336000908152602081905260409020548111156104e05760405160e560020a62461bcd02815260206004820152601460248201527f496e73756666696369656e742062616c616e63650000000000000000000000006044820152606401610475565b6104ea3382610aa6565b60405181815260019033907fde3ca466246b0da455138dbea78dacd91d3c40dc98d5846ff0193bf67c24b0e79060200160405180910390a350565b600081815260066020526040902080546060919061054290610fd5565b80601f016020809104026020016040519081016040528092919081815260200182805461056e90610fd5565b80156105bb5780601f10610590576101008083540402835291602001916105bb565b820191906000526020600020905b81548152906001019060200180831161059e57829003601f168201915b50505050509050919050565b60606004805461029590610fd5565b6000600160a060020a0383166106315760405160e560020a62461bcd02815260206004820152601960248201527f496e76616c696420726563697069656e742061646472657373000000000000006044820152606401610475565b600082116106aa5760405160e560020a62461bcd02815260206004820152602660248201527f5472616e7366657220616d6f756e74206d75737420626520677265617465722060448201527f7468616e203000000000000000000000000000000000000000000000000000006064820152608401610475565b3360009081526020819052604090205482111561070c5760405160e560020a62461bcd02815260206004820152601460248201527f496e73756666696369656e742062616c616e63650000000000000000000000006044820152606401610475565b610717338484610a15565b600183600160a060020a031633600160a060020a03167fb4b510017fa3548bf934bbeafb570ebc4f19982ace19ae88d2de59a13addebf18560405161075e91815260200190565b60405180910390a450600192915050565b600554600160a060020a031633146107cc5760405160e560020a62461bcd02815260206004820152600d60248201527f4e6f7420746865206f776e6572000000000000000000000000000000000000006044820152606401610475565b600160a060020a0383166108255760405160e560020a62461bcd02815260206004820152601960248201527f496e76616c696420726563697069656e742061646472657373000000000000006044820152606401610475565b60008251116108795760405160e560020a62461bcd02815260206004820152601660248201527f4d616e7472612063616e6e6f7420626520656d707479000000000000000000006044820152606401610475565b600081116108cc5760405160e560020a62461bcd02815260206004820152601f60248201527f5175616e74697479206d7573742062652067726561746572207468616e2030006044820152606401610475565b60005b8181101561096c576108e2846001610af9565b60075460008181526006602052604090206108fd8582611076565b508085600160a060020a03167faaabadf30377b070ea448b56e05e18337b24c16080fd4d7cac341320baa8b65a86600160405161093b92919061113c565b60405180910390a3600780549060006109538361118d565b91905055505080806109649061118d565b9150506108cf565b50505050565b61097f8383836001610b48565b505050565b600160a060020a03838116600090815260016020908152604080832093861683529290522054600019811461096c5781811015610a06576040517ffb8f41b2000000000000000000000000000000000000000000000000000000008152600160a060020a03841660048201526024810182905260448101839052606401610475565b61096c84848484036000610b48565b600160a060020a038316610a58576040517f96c6fd1e00000000000000000000000000000000000000000000000000000000815260006004820152602401610475565b600160a060020a038216610a9b576040517fec442f0500000000000000000000000000000000000000000000000000000000815260006004820152602401610475565b61097f838383610c4f565b600160a060020a038216610ae9576040517f96c6fd1e00000000000000000000000000000000000000000000000000000000815260006004820152602401610475565b610af582600083610c4f565b5050565b600160a060020a038216610b3c576040517fec442f0500000000000000000000000000000000000000000000000000000000815260006004820152602401610475565b610af560008383610c4f565b600160a060020a038416610b8b576040517fe602df0500000000000000000000000000000000000000000000000000000000815260006004820152602401610475565b600160a060020a038316610bce576040517f94280d6200000000000000000000000000000000000000000000000000000000815260006004820152602401610475565b600160a060020a038085166000908152600160209081526040808320938716835292905220829055801561096c5782600160a060020a031684600160a060020a03167f8c5be1e5ebec7d5bd14f71427d1e84f3dd0314c0f7b2291e5b200ac8c7c3b92584604051610c4191815260200190565b60405180910390a350505050565b600160a060020a038316610c7a578060026000828254610c6f91906111a6565b90915550610d059050565b600160a060020a03831660009081526020819052604090205481811015610ce6576040517fe450d38c000000000000000000000000000000000000000000000000000000008152600160a060020a03851660048201526024810182905260448101839052606401610475565b600160a060020a03841660009081526020819052604090209082900390555b600160a060020a038216610d2157600280548290039055610d40565b600160a060020a03821660009081526020819052604090208054820190555b81600160a060020a031683600160a060020a03167fddf252ad1be2c89b69c2b068fc378daa952ba7f163c4a11628f55a4df523b3ef83604051610d8591815260200190565b60405180910390a3505050565b6000815180845260005b81811015610db857602081850181015186830182015201610d9c565b506000602082860101526020601f19601f83011685010191505092915050565b602081526000610deb6020830184610d92565b9392505050565b8035600160a060020a0381168114610e0957600080fd5b919050565b60008060408385031215610e2157600080fd5b610e2a83610df2565b946020939093013593505050565b600080600060608486031215610e4d57600080fd5b610e5684610df2565b9250610e6460208501610df2565b9150604084013590509250925092565b600060208284031215610e8657600080fd5b5035919050565b600060208284031215610e9f57600080fd5b610deb82610df2565b7f4e487b7100000000000000000000000000000000000000000000000000000000600052604160045260246000fd5b600080600060608486031215610eec57600080fd5b610ef584610df2565b9250602084013567ffffffffffffffff80821115610f1257600080fd5b818601915086601f830112610f2657600080fd5b813581811115610f3857610f38610ea8565b604051601f8201601f19908116603f01168101908382118183101715610f6057610f60610ea8565b81604052828152896020848701011115610f7957600080fd5b826020860160208301376000602084830101528096505050505050604084013590509250925092565b60008060408385031215610fb557600080fd5b610fbe83610df2565b9150610fcc60208401610df2565b90509250929050565b600281046001821680610fe957607f821691505b602082108103611022577f4e487b7100000000000000000000000000000000000000000000000000000000600052602260045260246000fd5b50919050565b601f82111561097f576000818152602081206020601f8601048101602086101561104f5750805b6020601f860104820191505b8181101561106e5782815560010161105b565b505050505050565b815167ffffffffffffffff81111561109057611090610ea8565b6110a48161109e8454610fd5565b84611028565b602080601f8311600181146110dd57600084156110c15750858301515b60028086026008870290910a600019041982161786555061106e565b600085815260208120601f198616915b8281101561110c578886015182559484019460019091019084016110ed565b508582101561112c57878501516008601f88160260020a60001904191681555b5050505050600202600101905550565b60408152600061114f6040830185610d92565b90508260208301529392505050565b7f4e487b7100000000000000000000000000000000000000000000000000000000600052601160045260246000fd5b60006001820161119f5761119f61115e565b5060010190565b8082018082111561032c5761032c61115e56fea2646970667358221220b5e41e7cdf01866e848edbc2d7df3229cf288d8a152106e7a04a9e9139e129e664736f6c63430008140033",
  "immutableReferences": {},
  "source": "// SPDX-License-Identifier: MIT\npragma solidity ^0.8.0;\n\nimport \"@openzeppelin/contracts/token/ERC20/ERC20.sol\";\n\ncontract SyMantra is ERC20 {\n    address public owner;\n\n    // Mapping to store the mantras of each token\n    mapping(uint256 => string) public tokenMantras;\n\n    // Counter to keep track of the next available token ID\n    uint256 private nextTokenId;\n\n    event TokenMinted(address indexed to, uint256 indexed tokenId, string mantra, uint256 quantity);\n    event TokenTransferred(address indexed from, address indexed to, uint256 indexed tokenId, uint256 amount);\n    event TokenBurned(address indexed from, uint256 indexed tokenId, uint256 amount);\n\n    modifier onlyOwner() {\n        require(msg.sender == owner, \"Not the owner\");\n        _;\n    }\n\n    constructor() ERC20(\"SymbolicValueToken\", \"SVT\") {\n        owner = msg.sender;\n        nextTokenId = 1; // Start with token ID 1\n    }\n\n    function totalSupply() public view override returns (uint256) {\n        return super.totalSupply();\n    }\n\n    function getTokenId() external view returns (uint256) {\n        return nextTokenId;\n    }\n\n    function mintTokens(address to, string memory mantra, uint256 quantity) external onlyOwner {\n        require(to != address(0), \"Invalid recipient address\");\n        require(bytes(mantra).length > 0, \"Mantra cannot be empty\");\n        require(quantity > 0, \"Quantity must be greater than 0\");\n\n        for (uint256 i = 0; i < quantity; i++) {\n            _mint(to, 1);\n            uint256 newTokenId = nextTokenId;\n            tokenMantras[newTokenId] = mantra;\n\n            emit TokenMinted(to, newTokenId, mantra, 1);\n\n            // Increment the counter for the next token ID\n            nextTokenId++;\n        }\n    }\n\n    function transfer(address to, uint256 amount) public override returns (bool) {\n        require(to != address(0), \"Invalid recipient address\");\n        require(amount > 0, \"Transfer amount must be greater than 0\");\n        require(balanceOf(msg.sender) >= amount, \"Insufficient balance\");\n\n        _transfer(msg.sender, to, amount);\n\n        emit TokenTransferred(msg.sender, to, 1, amount);\n\n        return true;\n    }\n\n    function burn(uint256 amount) external {\n        require(amount > 0, \"Burn amount must be greater than 0\");\n        require(balanceOf(msg.sender) >= amount, \"Insufficient balance\");\n\n        _burn(msg.sender, amount);\n\n        emit TokenBurned(msg.sender, 1, amount);\n    }\n\n    // Function to retrieve the mantra associated with a token\n    function getTokenMantra(uint256 tokenId) external view returns (string memory) {\n        return tokenMantras[tokenId];\n    }\n}\n",
  "sourcePath": "/Applications/Ampps/www/SymVal/react_tree/contracts/SyMantra.sol",
  "compiler": {
    "name": "solc",
    "version": "0.8.20+commit.a1b79de6.Emscripten.clang"
  },
  "schemaVersion": "3.4.16",
  "updatedAt": "2023-12-07T02:34:23.150Z",
  "networkType": "ethereum",
  "devdoc": {
    "errors": {
      "ERC20InsufficientAllowance(address,uint256,uint256)": [
        {
          "details": "Indicates a failure with the `spender`s `allowance`. Used in transfers.",
          "params": {
            "allowance": "Amount of tokens a `spender` is allowed to operate with.",
            "needed": "Minimum amount required to perform a transfer.",
            "spender": "Address that may be allowed to operate on tokens without being their owner."
          }
        }
      ],
      "ERC20InsufficientBalance(address,uint256,uint256)": [
        {
          "details": "Indicates an error related to the current `balance` of a `sender`. Used in transfers.",
          "params": {
            "balance": "Current balance for the interacting account.",
            "needed": "Minimum amount required to perform a transfer.",
            "sender": "Address whose tokens are being transferred."
          }
        }
      ],
      "ERC20InvalidApprover(address)": [
        {
          "details": "Indicates a failure with the `approver` of a token to be approved. Used in approvals.",
          "params": {
            "approver": "Address initiating an approval operation."
          }
        }
      ],
      "ERC20InvalidReceiver(address)": [
        {
          "details": "Indicates a failure with the token `receiver`. Used in transfers.",
          "params": {
            "receiver": "Address to which tokens are being transferred."
          }
        }
      ],
      "ERC20InvalidSender(address)": [
        {
          "details": "Indicates a failure with the token `sender`. Used in transfers.",
          "params": {
            "sender": "Address whose tokens are being transferred."
          }
        }
      ],
      "ERC20InvalidSpender(address)": [
        {
          "details": "Indicates a failure with the `spender` to be approved. Used in approvals.",
          "params": {
            "spender": "Address that may be allowed to operate on tokens without being their owner."
          }
        }
      ]
    },
    "events": {
      "Approval(address,address,uint256)": {
        "details": "Emitted when the allowance of a `spender` for an `owner` is set by a call to {approve}. `value` is the new allowance."
      },
      "Transfer(address,address,uint256)": {
        "details": "Emitted when `value` tokens are moved from one account (`from`) to another (`to`). Note that `value` may be zero."
      }
    },
    "kind": "dev",
    "methods": {
      "allowance(address,address)": {
        "details": "See {IERC20-allowance}."
      },
      "approve(address,uint256)": {
        "details": "See {IERC20-approve}. NOTE: If `value` is the maximum `uint256`, the allowance is not updated on `transferFrom`. This is semantically equivalent to an infinite approval. Requirements: - `spender` cannot be the zero address."
      },
      "balanceOf(address)": {
        "details": "See {IERC20-balanceOf}."
      },
      "decimals()": {
        "details": "Returns the number of decimals used to get its user representation. For example, if `decimals` equals `2`, a balance of `505` tokens should be displayed to a user as `5.05` (`505 / 10 ** 2`). Tokens usually opt for a value of 18, imitating the relationship between Ether and Wei. This is the default value returned by this function, unless it's overridden. NOTE: This information is only used for _display_ purposes: it in no way affects any of the arithmetic of the contract, including {IERC20-balanceOf} and {IERC20-transfer}."
      },
      "name()": {
        "details": "Returns the name of the token."
      },
      "symbol()": {
        "details": "Returns the symbol of the token, usually a shorter version of the name."
      },
      "totalSupply()": {
        "details": "See {IERC20-totalSupply}."
      },
      "transferFrom(address,address,uint256)": {
        "details": "See {IERC20-transferFrom}. Emits an {Approval} event indicating the updated allowance. This is not required by the EIP. See the note at the beginning of {ERC20}. NOTE: Does not update the allowance if the current allowance is the maximum `uint256`. Requirements: - `from` and `to` cannot be the zero address. - `from` must have a balance of at least `value`. - the caller must have allowance for ``from``'s tokens of at least `value`."
      }
    },
    "version": 1
  },
  "userdoc": {
    "kind": "user",
    "methods": {},
    "version": 1
  }
}